S0130000536D61727420426F6172642E7372656302
S11300000C9434000C9451000C94CB000C945100CB
S11300100C9451000C9451000C9451000C94510018
S11300200C9451000C9451000C9451000C94510008
S11300300C9451000C9451000C9451000C945100F8
S11300400C9451000C9451000C9452010C945100E6
S11300500C9451000C9451000C9451000C945100D8
S11300600C9451000C94510011241FBECFEFD8E022
S1130070DEBFCDBF11E0A0E0B1E0EEE3F3E002C0EB
S113008005900D92AC30B107D9F721E0ACE0B1E0B6
S113009001C01D92AE30B207E1F70E9421010C9419
S11300A09D010C9400008FEF84B950983D9A0895F7
S11300B02D9A0895982F907F9BB9289829982A9A69
S11300C0EFE3FCE93197F1F700C000002A98EFE371
S11300D0FCE93197F1F700C00000F0E18F9FC00107
S11300E011248BB9289829982A9A8FE39CE90197BF
S11300F0F1F700C000002A98EFE3FCE93197F1F72B
S113010000C000000895982F907F9BB9289A2998E1
S11301102A9AEFE3FCE93197F1F700C000002A982E
S1130120EFE3FCE93197F1F700C00000F0E18F9FA5
S1130130C00111248BB9289A29982A9A8FE39CE943
S11301400197F1F700C000002A98EFE3FCE931972A
S1130150F1F700C00000089582E00E945A0088E28E
S11301600E945A008EE00E945A0081E00E945A00C8
S113017080E80E945A000895CF93DF93EC018881B0
S1130180882331F021960E94830089918111FBCF4D
S1130190DF91CF9108951F920F920FB60F92112401
S11301A02F933F934F935F936F937F938F939F937B
S11301B0AF93BF93EF93FF9380910C0190910D0146
S11301C0892B59F08EE00E945A0080E80E945A0060
S11301D080E091E00E94BC0003C088E00E945A00C5
S11301E020910C0130910D0181E090E0821B930B72
S11301F090930D0180930C01FF91EF91BF91AF910A
S11302009F918F917F916F915F914F913F912F912A
S11302100F900FBE0F901F9018951092C50087E69F
S11302208093C40088E98093C10086E08093C20073
S11302300895E0ECF0E080818823ECF78091C6001B
S113024008950E9453000E9458000E94AC000E942E
S11302500D01E9E6F0E0808183608083E99A789477
S11302600E941901FDCFEF92FF920F931F93CF933A
S1130270DF937C01D62F8C01C0E00E941901CF5F6F
S1130280F80181938F01CD1710F48D30B1F7F70188
S1130290EC0FF11D1082DF91CF911F910F91FF9010
S11302A0EF9008951F920F920FB60F9211242F937F
S11302B03F934F935F936F937F938F939F93AF93EA
S11302C0BF93EF93FF93CF93DF93CDB7DEB7C456BD
S11302D0D109DEBFCDBF80EC0E945A0064E670E015
S11302E0CE0101960E943301CE0101960E94BC000A
S11302F0459A2FEF83ED90E3215080409040E1F741
S113030000C000004598CC59DF4F0FB6F894DEBF0B
S11303100FBECDBFDF91CF91FF91EF91BF91AF9110
S11303209F918F917F916F915F914F913F912F9109
S11103300F900FBE0F901F901895F894FFCFFA
S10F033E202020204E6F746963653A0093
S9030000FC
